{
  "contractName": "ChainlinkPriceOracle",
  "abi": [
    {
      "inputs": [
        {
          "internalType": "address",
          "name": "_priceFeedAddress",
          "type": "address"
        }
      ],
      "stateMutability": "nonpayable",
      "type": "constructor"
    },
    {
      "inputs": [],
      "name": "getLatestPrice",
      "outputs": [
        {
          "internalType": "int256",
          "name": "",
          "type": "int256"
        }
      ],
      "stateMutability": "view",
      "type": "function"
    },
    {
      "inputs": [
        {
          "internalType": "uint256",
          "name": "ethAmount",
          "type": "uint256"
        }
      ],
      "name": "ethToUsd",
      "outputs": [
        {
          "internalType": "uint256",
          "name": "",
          "type": "uint256"
        }
      ],
      "stateMutability": "view",
      "type": "function"
    },
    {
      "inputs": [
        {
          "internalType": "uint256",
          "name": "usdAmount",
          "type": "uint256"
        }
      ],
      "name": "usdToEth",
      "outputs": [
        {
          "internalType": "uint256",
          "name": "",
          "type": "uint256"
        }
      ],
      "stateMutability": "view",
      "type": "function"
    },
    {
      "inputs": [
        {
          "internalType": "uint256",
          "name": "eurAmount",
          "type": "uint256"
        }
      ],
      "name": "eurToEth",
      "outputs": [
        {
          "internalType": "uint256",
          "name": "",
          "type": "uint256"
        }
      ],
      "stateMutability": "view",
      "type": "function"
    },
    {
      "inputs": [
        {
          "internalType": "uint256",
          "name": "ethAmount",
          "type": "uint256"
        }
      ],
      "name": "ethToEur",
      "outputs": [
        {
          "internalType": "uint256",
          "name": "",
          "type": "uint256"
        }
      ],
      "stateMutability": "view",
      "type": "function"
    }
  ],
  "bytecode": "0x608060405234801561001057600080fd5b506040516107ec3803806107ec8339818101604052810190610032919061014a565b600073ffffffffffffffffffffffffffffffffffffffff168173ffffffffffffffffffffffffffffffffffffffff16036100a1576040517f08c379a0000000000000000000000000000000000000000000000000000000008152600401610098906101d4565b60405180910390fd5b806000806101000a81548173ffffffffffffffffffffffffffffffffffffffff021916908373ffffffffffffffffffffffffffffffffffffffff160217905550506101f4565b600080fd5b600073ffffffffffffffffffffffffffffffffffffffff82169050919050565b6000610117826100ec565b9050919050565b6101278161010c565b811461013257600080fd5b50565b6000815190506101448161011e565b92915050565b6000602082840312156101605761015f6100e7565b5b600061016e84828501610135565b91505092915050565b600082825260208201905092915050565b7f496e76616c696420616464726573730000000000000000000000000000000000600082015250565b60006101be600f83610177565b91506101c982610188565b602082019050919050565b600060208201905081810360008301526101ed816101b1565b9050919050565b6105e9806102036000396000f3fe608060405234801561001057600080fd5b50600436106100575760003560e01c80634af692631461005c5780637d584cd11461008c5780638e15f473146100bc578063946d1480146100da578063bcecf6671461010a575b600080fd5b610076600480360381019061007191906102dc565b61013a565b6040516100839190610318565b60405180910390f35b6100a660048036038101906100a191906102dc565b61015b565b6040516100b39190610318565b60405180910390f35b6100c461017c565b6040516100d1919061034c565b60405180910390f35b6100f460048036038101906100ef91906102dc565b61025f565b6040516101019190610318565b60405180910390f35b610124600480360381019061011f91906102dc565b610280565b6040516101319190610318565b60405180910390f35b60008061014561017c565b9050808361015391906103c5565b915050919050565b60008061016661017c565b9050808361017491906103c5565b915050919050565b60008060008054906101000a900473ffffffffffffffffffffffffffffffffffffffff1673ffffffffffffffffffffffffffffffffffffffff1663feaf968c6040518163ffffffff1660e01b815260040160a060405180830381865afa1580156101ea573d6000803e3d6000fd5b505050506040513d601f19601f8201168201806040525081019061020e9190610479565b5050509150506000811215610258576040517f08c379a000000000000000000000000000000000000000000000000000000000815260040161024f90610551565b60405180910390fd5b8091505090565b60008061026a61017c565b905080836102789190610571565b915050919050565b60008061028b61017c565b9050808361029991906103c5565b915050919050565b600080fd5b6000819050919050565b6102b9816102a6565b81146102c457600080fd5b50565b6000813590506102d6816102b0565b92915050565b6000602082840312156102f2576102f16102a1565b5b6000610300848285016102c7565b91505092915050565b610312816102a6565b82525050565b600060208201905061032d6000830184610309565b92915050565b6000819050919050565b61034681610333565b82525050565b6000602082019050610361600083018461033d565b92915050565b7f4e487b7100000000000000000000000000000000000000000000000000000000600052601260045260246000fd5b7f4e487b7100000000000000000000000000000000000000000000000000000000600052601160045260246000fd5b60006103d0826102a6565b91506103db836102a6565b9250826103eb576103ea610367565b5b828204905092915050565b600069ffffffffffffffffffff82169050919050565b610415816103f6565b811461042057600080fd5b50565b6000815190506104328161040c565b92915050565b61044181610333565b811461044c57600080fd5b50565b60008151905061045e81610438565b92915050565b600081519050610473816102b0565b92915050565b600080600080600060a08688031215610495576104946102a1565b5b60006104a388828901610423565b95505060206104b48882890161044f565b94505060406104c588828901610464565b93505060606104d688828901610464565b92505060806104e788828901610423565b9150509295509295909350565b600082825260208201905092915050565b7f4e65676174697665207072696365000000000000000000000000000000000000600082015250565b600061053b600e836104f4565b915061054682610505565b602082019050919050565b6000602082019050818103600083015261056a8161052e565b9050919050565b600061057c826102a6565b9150610587836102a6565b9250828202610595816102a6565b915082820484148315176105ac576105ab610396565b5b509291505056fea2646970667358221220f5dcf9ab9f7fab929bd44bf1b90f72763ce36b1291b6bef9bb767abdc89c72fb64736f6c63430008110033",
  "immutableReferences": {},
  "source": "// SPDX-License-Identifier: MIT\r\npragma solidity ^0.8.17;\r\n\r\nimport \"./interface/AggregatorV3Interface.sol\";\r\n\r\n\r\ncontract ChainlinkPriceOracle {\r\n    AggregatorV3Interface internal priceFeed;\r\n\r\n    constructor(address _priceFeedAddress) {\r\n        require(_priceFeedAddress != address(0), \"Invalid address\");\r\n        // Additional checks if necessary\r\n        priceFeed = AggregatorV3Interface(_priceFeedAddress);\r\n    }\r\n\r\n    function getLatestPrice() public view returns (int) {\r\n        (, int price, , ,) = priceFeed.latestRoundData();\r\n        // Additional error handling if necessary\r\n        require(price >= 0, \"Negative price\");\r\n        return price;\r\n    }\r\n\r\n    function ethToUsd(uint256 ethAmount) external view returns (uint256) {\r\n        int ethToUsdPrice = getLatestPrice();\r\n        // Perform conversion using the obtained price\r\n        // Add logic for precision and rounding as needed\r\n        return uint256(ethAmount) * uint256(ethToUsdPrice);\r\n    }\r\n\r\n    function usdToEth(uint256 usdAmount) external view returns (uint256) {\r\n        int usdToEthPrice = getLatestPrice();\r\n        // Perform conversion using the obtained price\r\n        // Add logic for precision and rounding as needed\r\n        return uint256(usdAmount) / uint256(usdToEthPrice);\r\n    }\r\n\r\n    function eurToEth(uint256 eurAmount) external view returns (uint256) {\r\n        int eurToEthPrice = getLatestPrice();  // Assuming the price is for EUR/ETH\r\n        // Perform conversion using the obtained price\r\n        // Add logic for precision and rounding as needed\r\n        return uint256(eurAmount) / uint256(eurToEthPrice);\r\n    }\r\n\r\n    function ethToEur(uint256 ethAmount) external view returns (uint256) {\r\n        int ethToEurPrice = getLatestPrice();  // Assuming the price is for ETH/EUR\r\n        // Perform conversion using the obtained price\r\n        // Add logic for precision and rounding as needed\r\n        return uint256(ethAmount) / uint256(ethToEurPrice);\r\n    }\r\n}",
  "sourcePath": "C:\\Users\\m2001\\Desktop\\SP\\LP_Final_Main\\LP-05\\dapp\\contracts\\ChainlinkPriceOracle.sol",
  "compiler": {
    "name": "solc",
    "version": "0.8.17+commit.8df45f5f.Emscripten.clang"
  },
  "schemaVersion": "3.4.16",
  "updatedAt": "2024-01-07T19:46:55.609Z",
  "devdoc": {
    "kind": "dev",
    "methods": {},
    "version": 1
  },
  "userdoc": {
    "kind": "user",
    "methods": {},
    "version": 1
  }
}