{
  "contractName": "ExchangeRate",
  "abi": [
    {
      "inputs": [
        {
          "internalType": "uint256",
          "name": "cents",
          "type": "uint256"
        }
      ],
      "name": "usdToEth",
      "outputs": [
        {
          "internalType": "uint256",
          "name": "",
          "type": "uint256"
        }
      ],
      "stateMutability": "pure",
      "type": "function",
      "constant": true
    },
    {
      "inputs": [
        {
          "internalType": "uint256",
          "name": "ethWei",
          "type": "uint256"
        }
      ],
      "name": "ethToUsd",
      "outputs": [
        {
          "internalType": "uint256",
          "name": "",
          "type": "uint256"
        }
      ],
      "stateMutability": "pure",
      "type": "function",
      "constant": true
    },
    {
      "inputs": [
        {
          "internalType": "uint256",
          "name": "cents",
          "type": "uint256"
        }
      ],
      "name": "eurToEth",
      "outputs": [
        {
          "internalType": "uint256",
          "name": "",
          "type": "uint256"
        }
      ],
      "stateMutability": "pure",
      "type": "function",
      "constant": true
    },
    {
      "inputs": [
        {
          "internalType": "uint256",
          "name": "eth",
          "type": "uint256"
        }
      ],
      "name": "ethToEur",
      "outputs": [
        {
          "internalType": "uint256",
          "name": "",
          "type": "uint256"
        }
      ],
      "stateMutability": "pure",
      "type": "function",
      "constant": true
    }
  ],
  "bytecode": "0x608060405273f09ffcb439c489f2af6b2d359c2079d5549c39f86000806101000a81548173ffffffffffffffffffffffffffffffffffffffff021916908373ffffffffffffffffffffffffffffffffffffffff16021790555034801561006457600080fd5b506103cf806100746000396000f3fe608060405234801561001057600080fd5b506004361061004c5760003560e01c80634af69263146100515780637d584cd114610081578063946d1480146100b1578063bcecf667146100e1575b600080fd5b61006b60048036038101906100669190610271565b610111565b60405161007891906102ad565b60405180910390f35b61009b60048036038101906100969190610271565b610158565b6040516100a891906102ad565b60405180910390f35b6100cb60048036038101906100c69190610271565b6101a6565b6040516100d891906102ad565b60405180910390f35b6100fb60048036038101906100f69190610271565b6101e2565b60405161010891906102ad565b60405180910390f35b6000806305f5e10063068576d08461012991906102f7565b6101339190610368565b9050600061014c60648361014791906102f7565b6101e2565b90508092505050919050565b600080610164836101a6565b9050600063068576d06305f5e1008361017d91906102f7565b6101879190610368565b9050670de0b6b3a76400008161019d9190610368565b92505050919050565b600080687966a97010f9ba000090506000670de0b6b3a764000082856101cc91906102f7565b6101d69190610368565b90508092505050919050565b600080687966a97010f9ba000090506000662386f26fc100008461020691906102f7565b9050600082670de0b6b3a76400008361021f91906102f7565b6102299190610368565b9050809350505050919050565b600080fd5b6000819050919050565b61024e8161023b565b811461025957600080fd5b50565b60008135905061026b81610245565b92915050565b60006020828403121561028757610286610236565b5b60006102958482850161025c565b91505092915050565b6102a78161023b565b82525050565b60006020820190506102c2600083018461029e565b92915050565b7f4e487b7100000000000000000000000000000000000000000000000000000000600052601160045260246000fd5b60006103028261023b565b915061030d8361023b565b925082820261031b8161023b565b91508282048414831517610332576103316102c8565b5b5092915050565b7f4e487b7100000000000000000000000000000000000000000000000000000000600052601260045260246000fd5b60006103738261023b565b915061037e8361023b565b92508261038e5761038d610339565b5b82820490509291505056fea2646970667358221220b8ff5252ccb54124474aa2c1c0dca705a01ac400c12fa24f24d3592fc5187c5264736f6c63430008110033",
  "immutableReferences": {},
  "source": "// SPDX-License-Identifier: MIT\r\npragma solidity ^0.8.17;\r\n\r\n//import \"@openzeppelin/contracts/utils/math/SafeMath.sol\";\r\n\r\ncontract SafeMath {\r\n    function safeMul(uint256 a, uint256 b) internal pure returns (uint256) {\r\n        if (a == 0) {\r\n            return 0;\r\n        }\r\n        uint256 c = a * b;\r\n        require(c / a == b, \"Multiplication overflow\");\r\n        return c;\r\n    }\r\n\r\n    function safeDiv(uint256 a, uint256 b) internal pure returns (uint256) {\r\n        require(b > 0, \"Division by zero\");\r\n        uint256 c = a / b;\r\n        return c;\r\n    }\r\n}\r\n\r\ninterface Oracle {\r\n    function latestAnswer() external view returns (int256);\r\n}\r\n\r\n\r\ncontract ExchangeRate {\r\n\r\n    address addressOracle = 0xf09ffcb439C489f2af6B2d359c2079D5549c39f8; //ni povezave na network// 0x5f4eC3Df9cbd43714FE2740f5E3616155c5b8419\r\n\r\n    uint256 constant private eurToUsdRate = 109410000;\r\n\r\n    function usdToEth(uint256 cents) public pure returns (uint256) {\r\n        uint256 currentFiatPrice = 223945360000 * 1e10;\r\n        uint256 fiatPrice = cents * 1e16;\r\n\r\n        uint256 ethWei = (fiatPrice * 1e18) / currentFiatPrice;\r\n\r\n        return ethWei;\r\n    }\r\n\r\n    function ethToUsd(uint256 ethWei) public pure returns (uint256) {\r\n        uint256 currentFiatPrice = 223945360000 * 1e10;\r\n        uint256 ethPrice = ethWei * currentFiatPrice / 1e18;\r\n\r\n        return ethPrice;\r\n    }\r\n\r\n    function eurToEth(uint256 cents) public pure returns (uint256) { //euro value in cents\r\n        uint256 usdAmount = cents * eurToUsdRate / 1e8;\r\n        uint256 ethWei = usdToEth(usdAmount*100);\r\n        return ethWei;\r\n    }\r\n\r\n    function ethToEur(uint256 eth) public pure returns (uint256) {\r\n        uint256 usdAmount = ethToUsd(eth);\r\n        uint256 eurAmount = usdAmount * 1e8 / eurToUsdRate;\r\n        return eurAmount / 1e18;\r\n    }\r\n}\r\n",
  "sourcePath": "C:\\Users\\m2001\\Desktop\\SP\\LP_Final_Main\\LP-05\\dapp\\contracts\\ExchangeRate.sol",
  "compiler": {
    "name": "solc",
    "version": "0.8.17+commit.8df45f5f.Emscripten.clang"
  },
  "schemaVersion": "3.4.16",
  "updatedAt": "2024-01-07T19:47:00.675Z",
  "networkType": "ethereum",
  "devdoc": {
    "kind": "dev",
    "methods": {},
    "version": 1
  },
  "userdoc": {
    "kind": "user",
    "methods": {},
    "version": 1
  }
}