{
  "contractName": "TicketingSystem",
  "abi": [
    {
      "inputs": [],
      "stateMutability": "nonpayable",
      "type": "constructor"
    },
    {
      "anonymous": false,
      "inputs": [
        {
          "indexed": true,
          "internalType": "address",
          "name": "buyer",
          "type": "address"
        },
        {
          "indexed": true,
          "internalType": "uint256",
          "name": "eventId",
          "type": "uint256"
        }
      ],
      "name": "TicketPurchased",
      "type": "event"
    },
    {
      "inputs": [],
      "name": "eventCounter",
      "outputs": [
        {
          "internalType": "uint256",
          "name": "",
          "type": "uint256"
        }
      ],
      "stateMutability": "view",
      "type": "function",
      "constant": true
    },
    {
      "inputs": [
        {
          "internalType": "uint256",
          "name": "",
          "type": "uint256"
        }
      ],
      "name": "eventDBIds",
      "outputs": [
        {
          "internalType": "string",
          "name": "",
          "type": "string"
        }
      ],
      "stateMutability": "view",
      "type": "function",
      "constant": true
    },
    {
      "inputs": [
        {
          "internalType": "uint256",
          "name": "",
          "type": "uint256"
        }
      ],
      "name": "eventFunds",
      "outputs": [
        {
          "internalType": "uint256",
          "name": "eventId",
          "type": "uint256"
        },
        {
          "internalType": "uint256",
          "name": "funds",
          "type": "uint256"
        }
      ],
      "stateMutability": "view",
      "type": "function",
      "constant": true
    },
    {
      "inputs": [
        {
          "internalType": "uint256",
          "name": "",
          "type": "uint256"
        }
      ],
      "name": "eventIds",
      "outputs": [
        {
          "internalType": "uint256",
          "name": "",
          "type": "uint256"
        }
      ],
      "stateMutability": "view",
      "type": "function",
      "constant": true
    },
    {
      "inputs": [
        {
          "internalType": "uint256",
          "name": "",
          "type": "uint256"
        }
      ],
      "name": "events",
      "outputs": [
        {
          "internalType": "uint256",
          "name": "id",
          "type": "uint256"
        },
        {
          "internalType": "string",
          "name": "eventDBId",
          "type": "string"
        },
        {
          "internalType": "address",
          "name": "author",
          "type": "address"
        },
        {
          "internalType": "string",
          "name": "name",
          "type": "string"
        },
        {
          "internalType": "uint256",
          "name": "price",
          "type": "uint256"
        },
        {
          "internalType": "uint256",
          "name": "maxParticipants",
          "type": "uint256"
        },
        {
          "internalType": "uint256",
          "name": "currentNumParticipants",
          "type": "uint256"
        }
      ],
      "stateMutability": "view",
      "type": "function",
      "constant": true
    },
    {
      "inputs": [
        {
          "internalType": "string",
          "name": "_name",
          "type": "string"
        },
        {
          "internalType": "uint256",
          "name": "_price",
          "type": "uint256"
        },
        {
          "internalType": "uint256",
          "name": "_maxParticipants",
          "type": "uint256"
        },
        {
          "internalType": "string",
          "name": "_eventDBId",
          "type": "string"
        }
      ],
      "name": "createEvent",
      "outputs": [],
      "stateMutability": "nonpayable",
      "type": "function"
    },
    {
      "inputs": [],
      "name": "getEvents",
      "outputs": [
        {
          "internalType": "uint256[]",
          "name": "",
          "type": "uint256[]"
        }
      ],
      "stateMutability": "view",
      "type": "function",
      "constant": true
    },
    {
      "inputs": [
        {
          "internalType": "string",
          "name": "eventIdFromDb",
          "type": "string"
        }
      ],
      "name": "getEventIdBC",
      "outputs": [
        {
          "internalType": "int256",
          "name": "",
          "type": "int256"
        }
      ],
      "stateMutability": "view",
      "type": "function",
      "constant": true
    },
    {
      "inputs": [
        {
          "internalType": "uint256",
          "name": "eventId",
          "type": "uint256"
        }
      ],
      "name": "purchaseTicket",
      "outputs": [],
      "stateMutability": "payable",
      "type": "function",
      "payable": true
    },
    {
      "inputs": [
        {
          "internalType": "uint256",
          "name": "eventId",
          "type": "uint256"
        }
      ],
      "name": "getEventParticipants",
      "outputs": [
        {
          "internalType": "address[]",
          "name": "",
          "type": "address[]"
        }
      ],
      "stateMutability": "view",
      "type": "function",
      "constant": true
    },
    {
      "inputs": [
        {
          "internalType": "uint256",
          "name": "eventId",
          "type": "uint256"
        }
      ],
      "name": "withdrawFunds",
      "outputs": [],
      "stateMutability": "nonpayable",
      "type": "function"
    },
    {
      "inputs": [
        {
          "internalType": "uint256",
          "name": "eventId",
          "type": "uint256"
        }
      ],
      "name": "getTicketPrice",
      "outputs": [
        {
          "internalType": "uint256",
          "name": "",
          "type": "uint256"
        }
      ],
      "stateMutability": "view",
      "type": "function",
      "constant": true
    },
    {
      "inputs": [
        {
          "internalType": "uint256",
          "name": "eventId",
          "type": "uint256"
        }
      ],
      "name": "getEventFunds",
      "outputs": [
        {
          "internalType": "uint256",
          "name": "",
          "type": "uint256"
        }
      ],
      "stateMutability": "view",
      "type": "function",
      "constant": true
    }
  ],
  "bytecode": "0x60806040526000805534801561001457600080fd5b5061256e806100246000396000f3fe6080604052600436106100c25760003560e01c8063998f6ac01161007f578063b50e018211610059578063b50e0182146102bb578063b948348c146102f8578063f06fc96114610314578063f3ef0d8814610351576100c2565b8063998f6ac0146102035780639bc6aadb14610240578063a85f974d1461027d576100c2565b80630b791430146100c7578063155dd5ee1461010a578063404aa8f91461013357806352c55db91461015e5780638e4327bd1461018957806392a406a1146101c6575b600080fd5b3480156100d357600080fd5b506100ee60048036038101906100e991906116c0565b61037a565b60405161010197969594939291906117cd565b60405180910390f35b34801561011657600080fd5b50610131600480360381019061012c91906116c0565b6104fc565b005b34801561013f57600080fd5b50610148610873565b6040516101559190611908565b60405180910390f35b34801561016a57600080fd5b506101736108cb565b604051610180919061192a565b60405180910390f35b34801561019557600080fd5b506101b060048036038101906101ab91906116c0565b6108d1565b6040516101bd919061192a565b60405180910390f35b3480156101d257600080fd5b506101ed60048036038101906101e891906116c0565b610a15565b6040516101fa9190611945565b60405180910390f35b34801561020f57600080fd5b5061022a600480360381019061022591906116c0565b610ac1565b604051610237919061192a565b60405180910390f35b34801561024c57600080fd5b5061026760048036038101906102629190611a9c565b610ae5565b6040516102749190611afe565b60405180910390f35b34801561028957600080fd5b506102a4600480360381019061029f91906116c0565b610bb7565b6040516102b2929190611b19565b60405180910390f35b3480156102c757600080fd5b506102e260048036038101906102dd91906116c0565b610beb565b6040516102ef9190611c00565b60405180910390f35b610312600480360381019061030d91906116c0565b610db3565b005b34801561032057600080fd5b5061033b600480360381019061033691906116c0565b61122a565b604051610348919061192a565b60405180910390f35b34801561035d57600080fd5b5061037860048036038101906103739190611c22565b61136e565b005b6001818154811061038a57600080fd5b90600052602060002090600802016000915090508060000154908060010180546103b390611cf0565b80601f01602080910402602001604051908101604052809291908181526020018280546103df90611cf0565b801561042c5780601f106104015761010080835404028352916020019161042c565b820191906000526020600020905b81548152906001019060200180831161040f57829003601f168201915b5050505050908060020160009054906101000a900473ffffffffffffffffffffffffffffffffffffffff169080600301805461046790611cf0565b80601f016020809104026020016040519081016040528092919081815260200182805461049390611cf0565b80156104e05780601f106104b5576101008083540402835291602001916104e0565b820191906000526020600020905b8154815290600101906020018083116104c357829003601f168201915b5050505050908060040154908060050154908060060154905087565b806001818154811061051157610510611d21565b5b906000526020600020906008020160020160009054906101000a900473ffffffffffffffffffffffffffffffffffffffff1673ffffffffffffffffffffffffffffffffffffffff163373ffffffffffffffffffffffffffffffffffffffff16146105b0576040517f08c379a00000000000000000000000000000000000000000000000000000000081526004016105a790611dc2565b60405180910390fd5b816000805b6003805490508110156106825782600382815481106105d7576105d6611d21565b5b90600052602060002001541480156106615750600073ffffffffffffffffffffffffffffffffffffffff166001848154811061061657610615611d21565b5b906000526020600020906008020160020160009054906101000a900473ffffffffffffffffffffffffffffffffffffffff1673ffffffffffffffffffffffffffffffffffffffff1614155b1561066f5760019150610682565b808061067a90611e11565b9150506105b5565b50806106c3576040517f08c379a00000000000000000000000000000000000000000000000000000000081526004016106ba90611ea5565b60405180910390fd5b6000600285815481106106d9576106d8611d21565b5b9060005260206000209060020201600101541161072b576040517f08c379a000000000000000000000000000000000000000000000000000000000815260040161072290611f37565b60405180910390fd5b60006001858154811061074157610740611d21565b5b906000526020600020906008020160020160009054906101000a900473ffffffffffffffffffffffffffffffffffffffff1673ffffffffffffffffffffffffffffffffffffffff166002868154811061079d5761079c611d21565b5b9060005260206000209060020201600101546040516107bb90611f88565b60006040518083038185875af1925050503d80600081146107f8576040519150601f19603f3d011682016040523d82523d6000602084013e6107fd565b606091505b5050905080610841576040517f08c379a00000000000000000000000000000000000000000000000000000000081526004016108389061200f565b60405180910390fd5b60006002868154811061085757610856611d21565b5b9060005260206000209060020201600101819055505050505050565b606060038054806020026020016040519081016040528092919081815260200182805480156108c157602002820191906000526020600020905b8154815260200190600101908083116108ad575b5050505050905090565b60005481565b6000816000805b6003805490508110156109a55782600382815481106108fa576108f9611d21565b5b90600052602060002001541480156109845750600073ffffffffffffffffffffffffffffffffffffffff166001848154811061093957610938611d21565b5b906000526020600020906008020160020160009054906101000a900473ffffffffffffffffffffffffffffffffffffffff1673ffffffffffffffffffffffffffffffffffffffff1614155b1561099257600191506109a5565b808061099d90611e11565b9150506108d8565b50806109e6576040517f08c379a00000000000000000000000000000000000000000000000000000000081526004016109dd90611ea5565b60405180910390fd5b600284815481106109fa576109f9611d21565b5b90600052602060002090600202016001015492505050919050565b60048181548110610a2557600080fd5b906000526020600020016000915090508054610a4090611cf0565b80601f0160208091040260200160405190810160405280929190818152602001828054610a6c90611cf0565b8015610ab95780601f10610a8e57610100808354040283529160200191610ab9565b820191906000526020600020905b815481529060010190602001808311610a9c57829003601f168201915b505050505081565b60038181548110610ad157600080fd5b906000526020600020016000915090505481565b600080600090505b600180549050811015610b8d5782604051602001610b0b919061206b565b6040516020818303038152906040528051906020012060018281548110610b3557610b34611d21565b5b9060005260206000209060080201600101604051602001610b56919061211a565b6040516020818303038152906040528051906020012003610b7a5780915050610bb2565b8080610b8590611e11565b915050610aed565b507fffffffffffffffffffffffffffffffffffffffffffffffffffffffffffffffff90505b919050565b60028181548110610bc757600080fd5b90600052602060002090600202016000915090508060000154908060010154905082565b6060816000805b600380549050811015610cbf578260038281548110610c1457610c13611d21565b5b9060005260206000200154148015610c9e5750600073ffffffffffffffffffffffffffffffffffffffff1660018481548110610c5357610c52611d21565b5b906000526020600020906008020160020160009054906101000a900473ffffffffffffffffffffffffffffffffffffffff1673ffffffffffffffffffffffffffffffffffffffff1614155b15610cac5760019150610cbf565b8080610cb790611e11565b915050610bf2565b5080610d00576040517f08c379a0000000000000000000000000000000000000000000000000000000008152600401610cf790611ea5565b60405180910390fd5b60018481548110610d1457610d13611d21565b5b9060005260206000209060080201600701805480602002602001604051908101604052809291908181526020018280548015610da557602002820191906000526020600020905b8160009054906101000a900473ffffffffffffffffffffffffffffffffffffffff1673ffffffffffffffffffffffffffffffffffffffff1681526020019060010190808311610d5b575b505050505092505050919050565b806000805b600380549050811015610e85578260038281548110610dda57610dd9611d21565b5b9060005260206000200154148015610e645750600073ffffffffffffffffffffffffffffffffffffffff1660018481548110610e1957610e18611d21565b5b906000526020600020906008020160020160009054906101000a900473ffffffffffffffffffffffffffffffffffffffff1673ffffffffffffffffffffffffffffffffffffffff1614155b15610e725760019150610e85565b8080610e7d90611e11565b915050610db8565b5080610ec6576040517f08c379a0000000000000000000000000000000000000000000000000000000008152600401610ebd90611ea5565b60405180910390fd5b8260018181548110610edb57610eda611d21565b5b90600052602060002090600802016005015460018281548110610f0157610f00611d21565b5b90600052602060002090600802016006015410610f53576040517f08c379a0000000000000000000000000000000000000000000000000000000008152600401610f4a9061217d565b60405180910390fd5b836000805b60018381548110610f6c57610f6b611d21565b5b906000526020600020906008020160070180549050811015611038573373ffffffffffffffffffffffffffffffffffffffff1660018481548110610fb357610fb2611d21565b5b90600052602060002090600802016007018281548110610fd657610fd5611d21565b5b9060005260206000200160009054906101000a900473ffffffffffffffffffffffffffffffffffffffff1673ffffffffffffffffffffffffffffffffffffffff16036110255760019150611038565b808061103090611e11565b915050610f58565b50801561107a576040517f08c379a00000000000000000000000000000000000000000000000000000000081526004016110719061220f565b60405180910390fd5b6001868154811061108e5761108d611d21565b5b90600052602060002090600802016004015434146110e1576040517f08c379a00000000000000000000000000000000000000000000000000000000081526004016110d89061227b565b60405180910390fd5b600186815481106110f5576110f4611d21565b5b9060005260206000209060080201600701339080600181540180825580915050600190039060005260206000200160009091909190916101000a81548173ffffffffffffffffffffffffffffffffffffffff021916908373ffffffffffffffffffffffffffffffffffffffff1602179055506001868154811061117b5761117a611d21565b5b9060005260206000209060080201600601600081548092919061119d90611e11565b919050555034600287815481106111b7576111b6611d21565b5b906000526020600020906002020160010160008282546111d7919061229b565b92505081905550853373ffffffffffffffffffffffffffffffffffffffff167f0668f5b446eb814fe35b3206f43f14bd8567ba04ddaf7a3ee56516929ab22ccb60405160405180910390a3505050505050565b6000816000805b6003805490508110156112fe57826003828154811061125357611252611d21565b5b90600052602060002001541480156112dd5750600073ffffffffffffffffffffffffffffffffffffffff166001848154811061129257611291611d21565b5b906000526020600020906008020160020160009054906101000a900473ffffffffffffffffffffffffffffffffffffffff1673ffffffffffffffffffffffffffffffffffffffff1614155b156112eb57600191506112fe565b80806112f690611e11565b915050611231565b508061133f576040517f08c379a000000000000000000000000000000000000000000000000000000000815260040161133690611ea5565b60405180910390fd5b6001848154811061135357611352611d21565b5b90600052602060002090600802016004015492505050919050565b600080600081548092919061138290611e11565b91905055905060006040518061010001604052808381526020018481526020013373ffffffffffffffffffffffffffffffffffffffff16815260200187815260200186815260200185815260200160008152602001600067ffffffffffffffff8111156113f2576113f1611971565b5b6040519080825280602002602001820160405280156114205781602001602082028036833780820191505090505b5081525090506000604051806040016040528084815260200160008152509050600182908060018154018082558091505060019003906000526020600020906008020160009091909190915060008201518160000155602082015181600101908161148b9190612466565b5060408201518160020160006101000a81548173ffffffffffffffffffffffffffffffffffffffff021916908373ffffffffffffffffffffffffffffffffffffffff16021790555060608201518160030190816114e89190612466565b506080820151816004015560a0820151816005015560c0820151816006015560e08201518160070190805190602001906115239291906115cf565b50505060038390806001815401808255809150506001900390600052602060002001600090919091909150556004849080600181540180825580915050600190039060005260206000200160009091909190915090816115839190612466565b5060028190806001815401808255809150506001900390600052602060002090600202016000909190919091506000820151816000015560208201518160010155505050505050505050565b828054828255906000526020600020908101928215611648579160200282015b828111156116475782518260006101000a81548173ffffffffffffffffffffffffffffffffffffffff021916908373ffffffffffffffffffffffffffffffffffffffff160217905550916020019190600101906115ef565b5b5090506116559190611659565b5090565b5b8082111561167257600081600090555060010161165a565b5090565b6000604051905090565b600080fd5b600080fd5b6000819050919050565b61169d8161168a565b81146116a857600080fd5b50565b6000813590506116ba81611694565b92915050565b6000602082840312156116d6576116d5611680565b5b60006116e4848285016116ab565b91505092915050565b6116f68161168a565b82525050565b600081519050919050565b600082825260208201905092915050565b60005b8381101561173657808201518184015260208101905061171b565b60008484015250505050565b6000601f19601f8301169050919050565b600061175e826116fc565b6117688185611707565b9350611778818560208601611718565b61178181611742565b840191505092915050565b600073ffffffffffffffffffffffffffffffffffffffff82169050919050565b60006117b78261178c565b9050919050565b6117c7816117ac565b82525050565b600060e0820190506117e2600083018a6116ed565b81810360208301526117f48189611753565b905061180360408301886117be565b81810360608301526118158187611753565b905061182460808301866116ed565b61183160a08301856116ed565b61183e60c08301846116ed565b98975050505050505050565b600081519050919050565b600082825260208201905092915050565b6000819050602082019050919050565b61187f8161168a565b82525050565b60006118918383611876565b60208301905092915050565b6000602082019050919050565b60006118b58261184a565b6118bf8185611855565b93506118ca83611866565b8060005b838110156118fb5781516118e28882611885565b97506118ed8361189d565b9250506001810190506118ce565b5085935050505092915050565b6000602082019050818103600083015261192281846118aa565b905092915050565b600060208201905061193f60008301846116ed565b92915050565b6000602082019050818103600083015261195f8184611753565b905092915050565b600080fd5b600080fd5b7f4e487b7100000000000000000000000000000000000000000000000000000000600052604160045260246000fd5b6119a982611742565b810181811067ffffffffffffffff821117156119c8576119c7611971565b5b80604052505050565b60006119db611676565b90506119e782826119a0565b919050565b600067ffffffffffffffff821115611a0757611a06611971565b5b611a1082611742565b9050602081019050919050565b82818337600083830152505050565b6000611a3f611a3a846119ec565b6119d1565b905082815260208101848484011115611a5b57611a5a61196c565b5b611a66848285611a1d565b509392505050565b600082601f830112611a8357611a82611967565b5b8135611a93848260208601611a2c565b91505092915050565b600060208284031215611ab257611ab1611680565b5b600082013567ffffffffffffffff811115611ad057611acf611685565b5b611adc84828501611a6e565b91505092915050565b6000819050919050565b611af881611ae5565b82525050565b6000602082019050611b136000830184611aef565b92915050565b6000604082019050611b2e60008301856116ed565b611b3b60208301846116ed565b9392505050565b600081519050919050565b600082825260208201905092915050565b6000819050602082019050919050565b611b77816117ac565b82525050565b6000611b898383611b6e565b60208301905092915050565b6000602082019050919050565b6000611bad82611b42565b611bb78185611b4d565b9350611bc283611b5e565b8060005b83811015611bf3578151611bda8882611b7d565b9750611be583611b95565b925050600181019050611bc6565b5085935050505092915050565b60006020820190508181036000830152611c1a8184611ba2565b905092915050565b60008060008060808587031215611c3c57611c3b611680565b5b600085013567ffffffffffffffff811115611c5a57611c59611685565b5b611c6687828801611a6e565b9450506020611c77878288016116ab565b9350506040611c88878288016116ab565b925050606085013567ffffffffffffffff811115611ca957611ca8611685565b5b611cb587828801611a6e565b91505092959194509250565b7f4e487b7100000000000000000000000000000000000000000000000000000000600052602260045260246000fd5b60006002820490506001821680611d0857607f821691505b602082108103611d1b57611d1a611cc1565b5b50919050565b7f4e487b7100000000000000000000000000000000000000000000000000000000600052603260045260246000fd5b7f4f6e6c7920746865206576656e7420617574686f722063616e20706572666f7260008201527f6d207468697320616374696f6e00000000000000000000000000000000000000602082015250565b6000611dac602d83611707565b9150611db782611d50565b604082019050919050565b60006020820190508181036000830152611ddb81611d9f565b9050919050565b7f4e487b7100000000000000000000000000000000000000000000000000000000600052601160045260246000fd5b6000611e1c8261168a565b91507fffffffffffffffffffffffffffffffffffffffffffffffffffffffffffffffff8203611e4e57611e4d611de2565b5b600182019050919050565b7f4576656e7420646f6573206e6f74206578697374000000000000000000000000600082015250565b6000611e8f601483611707565b9150611e9a82611e59565b602082019050919050565b60006020820190508181036000830152611ebe81611e82565b9050919050565b7f4e6f2066756e647320746f20776974686472617720666f72207468697320657660008201527f656e740000000000000000000000000000000000000000000000000000000000602082015250565b6000611f21602383611707565b9150611f2c82611ec5565b604082019050919050565b60006020820190508181036000830152611f5081611f14565b9050919050565b600081905092915050565b50565b6000611f72600083611f57565b9150611f7d82611f62565b600082019050919050565b6000611f9382611f65565b9150819050919050565b7f4661696c656420746f2073656e642066756e647320746f20746865206576656e60008201527f7420617574686f72000000000000000000000000000000000000000000000000602082015250565b6000611ff9602883611707565b915061200482611f9d565b604082019050919050565b6000602082019050818103600083015261202881611fec565b9050919050565b600081905092915050565b6000612045826116fc565b61204f818561202f565b935061205f818560208601611718565b80840191505092915050565b6000612077828461203a565b915081905092915050565b60008190508160005260206000209050919050565b600081546120a481611cf0565b6120ae818661202f565b945060018216600081146120c957600181146120de57612111565b60ff1983168652811515820286019350612111565b6120e785612082565b60005b83811015612109578154818901526001820191506020810190506120ea565b838801955050505b50505092915050565b60006121268284612097565b915081905092915050565b7f4576656e7420697320736f6c64206f7574000000000000000000000000000000600082015250565b6000612167601183611707565b915061217282612131565b602082019050919050565b600060208201905081810360008301526121968161215a565b9050919050565b7f596f75206861766520616c72656164792070757263686173656420612074696360008201527f6b657420666f722074686973206576656e740000000000000000000000000000602082015250565b60006121f9603283611707565b91506122048261219d565b604082019050919050565b60006020820190508181036000830152612228816121ec565b9050919050565b7f496e636f7272656374207469636b657420707269636500000000000000000000600082015250565b6000612265601683611707565b91506122708261222f565b602082019050919050565b6000602082019050818103600083015261229481612258565b9050919050565b60006122a68261168a565b91506122b18361168a565b92508282019050808211156122c9576122c8611de2565b5b92915050565b60006020601f8301049050919050565b600082821b905092915050565b60006008830261231c7fffffffffffffffffffffffffffffffffffffffffffffffffffffffffffffffff826122df565b61232686836122df565b95508019841693508086168417925050509392505050565b6000819050919050565b600061236361235e6123598461168a565b61233e565b61168a565b9050919050565b6000819050919050565b61237d83612348565b6123916123898261236a565b8484546122ec565b825550505050565b600090565b6123a6612399565b6123b1818484612374565b505050565b5b818110156123d5576123ca60008261239e565b6001810190506123b7565b5050565b601f82111561241a576123eb81612082565b6123f4846122cf565b81016020851015612403578190505b61241761240f856122cf565b8301826123b6565b50505b505050565b600082821c905092915050565b600061243d6000198460080261241f565b1980831691505092915050565b6000612456838361242c565b9150826002028217905092915050565b61246f826116fc565b67ffffffffffffffff81111561248857612487611971565b5b6124928254611cf0565b61249d8282856123d9565b600060209050601f8311600181146124d057600084156124be578287015190505b6124c8858261244a565b865550612530565b601f1984166124de86612082565b60005b82811015612506578489015182556001820191506020850194506020810190506124e1565b86831015612523578489015161251f601f89168261242c565b8355505b6001600288020188555050505b50505050505056fea2646970667358221220548a76732a44a1a03365a1013636daf2d2885494e4730d74898598880ce9e89a64736f6c63430008110033",
  "immutableReferences": {},
  "source": "// SPDX-License-Identifier: MIT\npragma solidity ^0.8.17;\n\ncontract TicketingSystem {\n    //address public owner;\n    uint256 public eventCounter = 0;\n    \n    struct Event {\n        uint256 id;\n        string eventDBId;\n        address author;\n        string name;\n        uint256 price;\n        uint256 maxParticipants;\n        uint256 currentNumParticipants;\n        address[] participants;\n    }\n    struct EventFunds{\n        uint256 eventId;\n        uint256 funds;\n    }\n\n    //mapping(uint256 => uint256) public fundsReceived; // Mapping to track funds received for each event\n    \n    Event[] public events;\n    EventFunds[] public eventFunds;\n    uint256[] public eventIds; // new array to store event IDs\n    string[] public eventDBIds; // new array to store event ids from database\n\n    // modifier onlyOwner() {\n    //     require(msg.sender == owner, \"Only the owner can perform this action\");\n    //     _;\n    // }\n    modifier onlyEventAuthor(uint256 eventId) {\n    require(msg.sender == events[eventId].author, \"Only the event author can perform this action\");\n    _;\n}\n\n    modifier eventExists(uint256 eventId) {\n        bool exists = false;\n        for (uint256 i = 0; i < eventIds.length; i++) {\n            if (eventIds[i] == eventId && events[eventId].author != address(0)) {\n                exists = true;\n                break;\n            }\n        }\n        require(exists, \"Event does not exist\");\n        _;\n    }\n\n    modifier notSoldOut(uint256 eventId) {\n        require(events[eventId].currentNumParticipants < events[eventId].maxParticipants, \"Event is sold out\");\n        _;\n    }\n\n    modifier notAlreadyPurchased(uint256 eventId) {\n        bool purchased = false;\n        for (uint256 i = 0; i < events[eventId].participants.length; i++) {\n            if (events[eventId].participants[i] == msg.sender) {\n                purchased = true;\n                break;\n            }\n        }\n        require(!purchased, \"You have already purchased a ticket for this event\");\n        _;\n    }\n\n    event TicketPurchased(address indexed buyer, uint256 indexed eventId);\n\n    constructor() {\n        //owner = msg.sender;\n    }\n\n    function createEvent(\n        string memory _name,\n        uint256 _price,\n        uint256 _maxParticipants,\n        string memory _eventDBId\n    ) external {\n        uint256 eventId = eventCounter++;\n        // events[eventId] = Event({\n        //     author: msg.sender,\n        //     name: _name,\n        //     price: _price,\n        //     maxParticipants: _maxParticipants,\n        //     currentNumParticipants: 0,\n        //     participants: new address[](0,\n        // });\n        Event memory newEvent = Event({\n            id: eventId,\n            eventDBId: _eventDBId,\n            author: msg.sender,\n            name: _name,\n            price: _price,\n            maxParticipants: _maxParticipants,\n            currentNumParticipants: 0,\n            participants: new address[](0)\n        });\n        EventFunds memory newEventFunds = EventFunds({\n            eventId: eventId,\n            funds: 0\n        });\n        events.push(newEvent);\n        //events[eventId] = newEvent;\n        eventIds.push(eventId); // Add the event ID to the array\n        eventDBIds.push(_eventDBId);\n        eventFunds.push(newEventFunds);\n    }\n\n    function getEvents() external view returns (uint256[] memory) {\n        return eventIds;\n    }\n\n    function getEventIdBC(string memory eventIdFromDb) external view returns (int256) {\n        for (uint256 i = 0; i < events.length; i++) {\n            if (keccak256(abi.encodePacked(events[i].eventDBId)) == keccak256(abi.encodePacked(eventIdFromDb))) {\n                return int256(i);\n            }\n        }\n        return -1;\n    }\n\n    function purchaseTicket(uint256 eventId) external payable eventExists(eventId) notSoldOut(eventId) notAlreadyPurchased(eventId) {\n        require(msg.value == events[eventId].price, \"Incorrect ticket price\");\n        \n        events[eventId].participants.push(msg.sender);\n        events[eventId].currentNumParticipants++;\n\n        eventFunds[eventId].funds += msg.value;\n        emit TicketPurchased(msg.sender, eventId);\n    }\n\n    function getEventParticipants(uint256 eventId) external view eventExists(eventId) returns (address[] memory) {\n        return events[eventId].participants;\n    }\n\n    function withdrawFunds(uint256 eventId) external onlyEventAuthor(eventId) eventExists(eventId) {\n        require(eventFunds[eventId].funds > 0, \"No funds to withdraw for this event\");\n\n        //payable(events[eventId].author).transfer(eventFunds[eventId].funds);\n        (bool success, ) = payable(events[eventId].author).call{value: eventFunds[eventId].funds}(\"\");\n        require(success, \"Failed to send funds to the event author\");\n        eventFunds[eventId].funds = 0; // Reset funds for the event\n    }\n\n    function getTicketPrice(uint256 eventId) external view eventExists(eventId) returns (uint256) {\n        return events[eventId].price;\n    }\n    function getEventFunds(uint256 eventId) external view eventExists(eventId) returns (uint256) {\n        return eventFunds[eventId].funds;\n    }\n\n\n}\n",
  "sourcePath": "/home/urh/Documents/Faks/SP/LP/dapp/contracts/TicketingSystem.sol",
  "compiler": {
    "name": "solc",
    "version": "0.8.17+commit.8df45f5f.Emscripten.clang"
  },
  "schemaVersion": "3.4.16",
  "updatedAt": "2024-01-07T16:22:14.353Z",
  "networkType": "ethereum",
  "devdoc": {
    "kind": "dev",
    "methods": {},
    "version": 1
  },
  "userdoc": {
    "kind": "user",
    "methods": {},
    "version": 1
  }
}